:200000000C9426020C944E020C944E020C944E020C944E020C944E020C944E020C944E0288
:200020000C944E020C944E020C944E020C944E020C944E020C944E020C944E020C944E0240
:200040000C94270E0C944E020C9457110C9489110C944E020C944E020C944E020C944E02D9
:200060000C944E020C944E020C102D0D00000080808080808000000000000103030303033A
:20008000030100000000000000000000000000000000000000C0C000000000000000028654
:2000A0008686868686020000000081C3C3C3C3C3C381000000FC7A0606060606067AFC00FC
:2000C000007EBCC0C0C0C0C0C0BC7E0000000000000000000078FC000000000000000000B8
:2000E000003C7E000000028686868686867AFC00007EBDC3C3C3C3C3C381000000000286D4
:2001000086868686867AFC00000081C3C3C3C3C3C3BD7E0000FC7880808080808078FC0095
:200120000000010303030303033D7E0000FC7A868686868686020000000081C3C3C3C3C305
:20014000C3BD7E0000FC7A868686868686020000007EBDC3C3C3C3C3C3BD7E0000000206F5
:2001600006060606067AFC000000000000000000003C7E0000FC7A8686868686867AFC0021
:20018000007EBDC3C3C3C3C3C3BD7E0000FC7A8686868686867AFC00000081C3C3C3C3C3F7
:2001A000C3BD7E000608205F0000000000000000002F000000000700070000147F147F143D
:2001C00000242A7F2A1200231308646200364955225000000503000000001C224100000045
:2001E00041221C000014083E08140008083E0808000000A0600000080808080800006060C4
:200200000000002010080402003E5149453E0000427F4000004261514946002141454B319E
:20022000001814127F10002745454539003C4A4949300001710905030036494949360006AA
:200240004949291E0000363600000000563600000008142241000014141414140000412287
:20026000140800020151090600324959513E007C1211127C007F49494936003E41414122BC
:20028000007F4141221C007F49494941007F09090901003E4149497A007F0808087F000048
:2002A000417F4100002040413F01007F08142241007F40404040007F020C027F007F040846
:2002C000107F003E4141413E007F09090906003E4151215E007F09192946004649494931FF
:2002E0000001017F0101003F4040403F001F2040201F003F4038403F00631408146300074C
:200300000870080700615149454300007F414100AA55AA55AA55000041417F0000040201CD
:200320000204004040404040000003050000002054545478007F4844443800384444442030
:2003400000384444487F00385454541800087E0901020018A4A4A47C007F080404780000B1
:20036000447D4000004080847D00007F102844000000417F4000007C04180478007C080424
:20038000047800384444443800FC242424180018242418FC007C08040408004854545420B9
:2003A00000043F444020003C4040207C001C2040201C003C4030403C004428102844001C1A
:2003C000A0A0A07C004464544C440000107C8200000000FF00000000827C1000000006090B
:2003E000090600000008000201000003040700000000000000000000000102040810204056
:200400008001020408102001020408102040804004040404040404040202020202020303AC
:20042000030303030202030000000023002600290000000000250028002B0000000000249B
:200440000027002A00004108B911BF0811241FBECFEFD8E0DEBFCDBF11E0A0E0B1E0E8E0F6
:20046000F1E302C005900D92A83DB107D9F727E0A8EDB1E001C01D92A633B207E1F712E04C
:20048000C5E2D2E004C02197FE010E941516C332D107C9F70E9480130C9477180C9400002A
:2004A0008EBD00000DB407FEFDCF8EB50895809124068F5F843018F48093240602C01092F5
:2004C000240681E08093F3050895809131068F5F823018F48093310602C01092310681E0AF
:2004E0008093F3050895809186068F5F873018F48093860602C010928606E091860684E016
:20050000E89FF0011124E45FFE4F80819181A281B3818093870690938806A0938906B093DE
:200520008A0681E08093F3050895409128015091290160912A0170912B0180918706909115
:200540008806A0918906B0918A06840F951FA61FB71F8093280190932901A0932A01B09370
:200560002B0181E08093F30508958091280190912901A0912A01B0912B01409187065091B9
:2005800088066091890670918A06841B950BA60BB70B8093280190932901A0932A01B093E0
:2005A0002B0181E08093F305089561E083E00E94890F85E090E00E94DE0E60E083E00E9480
:2005C000890F08950F931F93CF93DF9300D0CDB7DEB7182F062F60E083E02A8349830E949B
:2005E000890F8AE090E00E94DE0E812F0E945002802F0E9450024981842F0E9450022A8198
:20060000822F0E9450020F900F90DF91CF911F910F910C94D502CF92DF92EF92FF92880FE5
:20062000991F880F991FFC01EC50FA4F80819181A281B381492F5A2F6B2F77276D01EE240E
:20064000FF24282F6C2D8B2FFF90EF90DF90CF900C94E2022F923F924F925F926F927F92F7
:200660008F929F92AF92BF92CF92DF92EF92FF920F931F93CF93DF9300D000D0CDB7DEB7D1
:20068000E0913106F0E0E65FFE4F3080E0912406F0E0EA5FFE4F1081209128013091290149
:2006A00040912A0150912B0121158FEE38078CE148078DE0580708F098C1203887E7380761
:2006C0008EE8480786E0580708F092C1203C8BE3380787E4480783E0580708F08DC1203E1C
:2006E0008DE9380783EA480781E0580708F088C1203482E9380782ED4807510508F084C139
:20070000203289E4380789E64807510520F000E2E5E02E2E03C000E476E0272E60912C0144
:2007200070912D0180912E0190912F0129833A834B835C830E94A5146B017C01A02FB0E040
:2007400029813A814B815C810E940A160E94A514A70196010E94FD132B013C010E947614E8
:2007600080E090E00E94A5144B015C0120918706309188064091890650918A0660EA76E89F
:2007800081E090E00E94C915CA01B9010E94A5149B01AC01C701B6010E945C1520E030E538
:2007A00043EC57E40E94FD130E94761480E090E00E94A5146B017C01A5019401C301B2012B
:2007C0000E949013A70196010E945C152B013C0120E030E0A9010E94571520E030E040E021
:2007E0005FE387FD05C0C301B2010E94911304C0C301B2010E9490130E946F1480E090E03C
:200800000E94A51420E030E040E051E40E945C1520E030E0A9010E9491132B013C0120E09C
:2008200030E040E057E4C501B4010E945C159B01AC01C301B2010E9491130E94761460939A
:20084000F4057093F5058093F6059093F70520E030E040E051E4C701B6010E945C1520E07E
:2008600030E040E85FE30E94911320E030E040E057E40E94911320E030E0A9010E94911307
:2008800020E030E0A9010E9491130E9476146093F8057093F9058093FA059093FB05632D76
:2008A00070E080E090E00E94A71420E030E040E05EE40E945C1520E034E84EE956E40E9407
:2008C00091130E9476146093FC057093FD058093FE059093FF0583EB94E0A0E0B0E080930D
:2008E000000690930106A0930206B0930306612F70E080E090E00E94A71420E030E040E004
:2009000051E40E945C1520E030E040E850E40E94911320E030E040E052E40E94911320E031
:2009200030E0A9010E94911320E030E0A9010E94911320E030E0A9010E94911320E030E0A7
:20094000A9010E94911320E030E0A9010E94911320E030E048E459E40E9491136B017C01FF
:20096000622D70E080E090E00E94A71420E030E040E859E40E945C159B01AC01C701B6011B
:200980000E94911320E030E040E05BE40E9491130E94761460930406709305068093060606
:2009A0009093070685E090E0A8E5B0E08093080690930906A0930A06B0930B060F900F90ED
:2009C0000F900F90DF91CF911F910F91FF90EF90DF90CF90BF90AF909F908F907F906F90F3
:2009E0005F904F903F902F90089501E0212C96CE02E02224239492CE04E062E0262E8ECE57
:200A000008E093E0292E8ACE00E184E0282E86CE0F931F93CF931092F305E091860684E02C
:200A2000E89FF0011124E45FFE4F80819181A281B3818093870690938806A0938906B093B9
:200A40008A060E942A0385E090E00E940B0384EC99E00E94DE0E84E090E00E940B0384EC47
:200A600099E00E94DE0E83E090E00E940B0384EC99E00E94DE0E82E090E00E940B0384EC83
:200A800099E00E94DE0E81E090E00E940B0384EC99E00E94DE0E80E090E00E940B0384EC67
:200AA00099E00E94DE0E60E371E085E996E00E942C1204EF15E0C0E062E471E085E996E0D4
:200AC0000E9426124AE050E06C2F85E996E00E94941266E471E085E996E00E942612F801C9
:200AE00041915191619171918F0120E130E085E996E00E949B12CF5FC630F1F668E471E0D2
:200B000085E996E00E94261240918706509188066091890670918A062AE030E085E996E03B
:200B2000CF911F910F910C949B1261E083E00E944D0F60E083E00E94890F8CB5837F8CBDAD
:200B40008CB58F7D8CBD0E94F00864E873E080E090E00E94A20E0C94080562E08EE00E94A5
:200B60004D0F62E080E10E944D0F62E08FE00C944D0FCF92DF92EF92FF920E94710E6B015A
:200B80007C018EE00E94B90F892BF9F48091EC059091ED05A091EE05B091EF05A7019601B2
:200BA000281B390B4A0B5B0BDA01C90188359440A105B10550F0C092EC05D092ED05E09218
:200BC000EE05F092EF050E94730280E10E94B90F892BF9F48091EC059091ED05A091EE05F0
:200BE000B091EF05A7019601281B390B4A0B5B0BDA01C90188359440A105B10550F0C0921B
:200C0000EC05D092ED05E092EE05F092EF050E9465028FE00E94B90F892B19F58091EC050E
:200C20009091ED05A091EE05B091EF05A7019601281B390B4A0B5B0BDA01C9018835944091
:200C4000A105B10570F0C092EC05D092ED05E092EE05F092EF05FF90EF90DF90CF900C94EA
:200C60005702FF90EF90DF90CF90089562E089E00E944D0F62E087E00E944D0F62E088E0A8
:200C80000C944D0FCF92DF92EF92FF920F931F9389E00E94B90F892B09F50E94710E0091E9
:200CA000EC051091ED052091EE053091EF056B017C01C01AD10AE20AF30A48E5C41644E0A5
:200CC000D406E104F10450F06093EC057093ED058093EE059093EF050E94080587E00E9472
:200CE000B90F21E0892B09F420E02093F20588E00E94B90F21E0892B09F420E02093F105A3
:200D00008091F20581110BC08091F005882339F0222319F00E94950202C00E94B5028091E1
:200D2000F2058093F0051F910F91FF90EF90DF90CF90089581EE91E00E94860D61E081EE26
:200D400091E00C94F30C0E9495050E949A060E9436060E94AD0526E040E855E260E070E0DE
:200D600085E996E00C94F2104F925F926F927F928F929F92AF92BF92CF92EF92FF920F9310
:200D80001F93CF93DF9300D000D000D0CDB7DEB781EE91E00E94430964EA71E081EE91E0F7
:200DA0000E940F0C27E130E040E050E064E671E081EE91E00E94840A6091860616E0169F3B
:200DC000B00111246E5C794FCE0101960E94471329E130E04AE550E0BE016F5F7F4F81EEF6
:200DE00091E00E94E30ACE0101960E94AD1228E230E040E050E069E671E081EE91E00E94A0
:200E0000840A29E230E042E450E06DE671E081EE91E00E94840A28E330E04CE550E061E75B
:200E200071E081EE91E00E94840A60913106169FB00111246B5D794FCE0101960E9447139C
:200E400028E330E040E050E0BE016F5F7F4F81EE91E00E94E30ACE0101960E94AD12809185
:200E6000F3058823A1F08091E001882369F025E030E04AE750E068E771E081EE91E00E94B0
:200E8000840A1092E00103C081E08093E00168E670E081EE91E00E940F0C609128017091D3
:200EA000290180912A0190912B0120EA36E841E050E00E94C91529013A014B015C0180E315
:200EC000C82E94E0E92EF12C00E010E020E030E0B301A20181EE91E00E94260B25E0E22E75
:200EE000F12C2CE330E0B501A40181EE91E00E94260B20E030E04FE250E06AE771E081EE26
:200F000091E00E94840A6091860616E0169FB0011124645A794FCE0101960E94471322E137
:200F200030E044E250E0BE016F5F7F4F81EE91E00E94E30ACE0101960E94AD12609124069F
:200F4000169FB0011124645F794FCE0101960E94471324E230E044E250E0BE016F5F7F4F42
:200F600081EE91E00E94E30ACE0101960E94AD1281EE91E00E94020D26960FB6F894DEBF00
:200F80000FBECDBFDF91CF911F910F91FF90EF90CF90BF90AF909F908F907F906F905F9092
:200FA0004F9008950E9442060C94B905CF92DF92EF92FF920F931F93CF93DF9300D000D0C1
:200FC000CDB7DEB70E94710E0091DC011091DD012091DE013091DF016B017C01C01AD10A1B
:200FE000E20AF30A97018601043011052105310590F069837A838B839C830E94D207698148
:201000007A818B819C816093DC017093DD018093DE019093DF010091D8011091D901209170
:20102000DA013091DB016B017C01C01AD10AE20AF30A48E3C41641E0D406E104F10490F057
:2010400069837A838B839C830E94B40669817A818B819C816093D8017093D9018093DA0179
:201060009093DB010F900F900F900F90DF91CF911F910F91FF90EF90DF90CF9008950C94BC
:20108000D6076CE771E08CE596E00E941B1361E871E082E696E00E941B1364E871E088E6C5
:2010A00096E00E941B136EE771E08EE696E00E941B1366EB71E084E796E00E941B1361E8EE
:2010C00071E08AE796E00E941B1369E871E080E896E00E941B136DE871E082E396E00E9495
:2010E0001B136DE871E088E396E00E941B136DE871E08EE396E00E941B136DE871E084E400
:2011000096E00E941B1361E971E08AE496E00E941B1361E971E080E596E00E941B1361E9AA
:2011200071E086E596E00E941B1365E971E085E296E00E941B1364EA71E08BE296E00E943D
:201140001B1362EB71E08CE096E00E941B1365EB71E082E196E00E941B1368EB71E088E1BA
:2011600096E00E941B1367E871E08EE196E00E941B1343E162E181EE91E00C943D09CF9345
:20118000DF938EE196E00E94AD1288E196E00E94AD1282E196E00E94AD128CE096E00E9499
:2011A000AD128BE296E00E94AD1285E296E00E94AD12CCE5D6E02697CE010E94AD1286E034
:2011C000C233D807C1F7C6E8D6E02697CE010E94AD1286E0CC35D807C1F7DF91CF910895C7
:2011E000CF93CFB7F89480918B06811127C0EAE1F4E08491E3E0F4E09491E82FF0E0EE0F0C
:20120000FF1FE55CFB4FA591B491EC91E92321F461E08AE00E94890F61E08AE00E944D0F7E
:201220008CB580618CBD8CB580648CBD61E08DE00E944D0F61E08BE00E944D0F80918B06DD
:201240008F5F80938B06CFBFCF91089561E082E10E94890F61E083E10E94890FE9EBF0E010
:2012600080818E7F808380818D7F80838CE08093B80085E08093BC000895FC0161834083A1
:201280008FEF828308950B9620E034E0FC01A901119241505040E1F7089560387105F0F4A7
:2012A00040345105D8F4FA0123E0F695E7952A95E1F7F695FE2FEE27F795E7956E0F7F1F0C
:2012C000FC01E60FF71F4770552781E090E001C0880F4A95EAF79385892B838708956038DF
:2012E0007105F8F440345105E0F4FA0123E0F695E7952A95E1F7F695FE2FEE27F795E7957D
:201300006E0F7F1FFC01E60FF71F4770552781E090E001C0880F4A95EAF7809593858923B5
:20132000838708954F925F926F927F928F929F92AF92BF92CF92DF92EF92FF920F931F9306
:20134000CF93DF93EC016A0139018F81382F37709E8170E02885311165C086958695869535
:20136000621B7109989FC0011124689F2001699F500C789F500C112484E0480E511C4301AA
:20138000A12CB12C8F8186958695869590E0A816B9060CF0A8C0320186018E8190E098011F
:2013A0002C193D0928173907B4F5E12CF12C8E818A9DF0018B9DF00D1124E60DF71D8C81BB
:2013C0009D81E80FF91FE491F0E00E2C02C0F595E7950A94E2F78A85A701480D591DB801E7
:2013E000E0FF03C0811103C006C0811104C0CE010E946F0903C0CE010E944D098FEFE81AE7
:20140000F80A88E0E816F10491F60F5F1F4F8FEF681A780AC2CF8FEFA81AB80A88E0880EF9
:20142000911CB0CF621B7109989FC001112423E0959587952A95E1F7689F5001699FB00C60
:20144000789FB00C112484E0A80EB11CEC81FD81EA0DFB1DE4914E2E512C7A0137E0832EF2
:20146000912C8E8190E097012C193D0928173907D4F583018F8190E098012619370928176A
:2014800039076CF52A85C201082C02C0959587950A94E2F7A801B70180FF04C0CE012111E1
:2014A00004C006C0CE01211103C00E946F0902C00E944D0981E0881A910897FE0DC08FEF8E
:2014C000A81AB80AEC81FD81EA0DFB1DE4914E2E512C87E0882E912C0F5F1F4FCBCF8FEF52
:2014E000E81AF80ABECFDF91CF911F910F91FF90EF90DF90CF90BF90AF909F908F907F9074
:201500006F905F904F9008958F929F92AF92BF92CF92DF92EF92FF920F931F93CF93DF9371
:201520006C01EA015901FB0101900020E9F731977F01E61AF70A4F30574259F4F601268120
:201540002E9DC0012F9D900D1124C0E8D0E0C81BD90BCE30F7E2DF0779F4F60126812E9DAF
:20156000C0012F9D900D1124C0E8D0E0C81BD90BD7FD2196D595C7958B01812C912C8E1404
:201580009F04A4F4F80161918F01F6018681889DA001899D500D11244C0F5D1F9501C601E5
:2015A0000E949209FFEF8F1A9F0AE9CFDF91CF911F910F91FF90EF90DF90CF90BF90AF906C
:2015C0009F908F9008958F929F92AF92BF92CF92DF92EF92FF920F931F93CF93DF93CDB7AC
:2015E000DEB76C01CB015A014901EDB6FEB6FB01448155814F5F5F4F2DB73EB7241B350BD6
:201600000FB6F8943EBF0FBE2DBF0DB71EB70F5F1F4F20E030E0B8010E9450139401A50145
:20162000B801C6010E94840A0FB6F894FEBE0FBEEDBEDF91CF911F910F91FF90EF90DF90D8
:20164000CF90BF90AF909F908F9008952F923F924F925F926F927F928F929F92AF92BF9258
:20166000CF92DF92EF92FF920F931F93CF93DF93CDB7DEB7E8970FB6F894DEBF0FBECDBF7F
:201680009EAB8DAB2A013B0138AF2FAB4115510561057105F1F4E114F104B9F0DE0111961B
:2016A00080E090E0FD0121E0E21AF1088E159F051CF4CD920196FACFE80FF91F20E320839B
:2016C000FE01E80FF91F128287C080E389831A8283C077FF0BC07094609450944094411C85
:2016E000511C611C711CDD24D39401C0D12C5E013CE1A30EB11C1501C301B2012AE030E0AC
:2017000040E050E00E94EB1520E3260FF10121931F014F018A189B08A3019201261B370B8A
:20172000480B590BCA01B9012AE030E040E050E00E94EB1529013A01232B242B252BE1F638
:20174000F501E80DF91D1082DD2011F08DE289838D2D90E09401280F391F2E153F05C4F4F0
:2017600040E050E0E818F908E81AF90A4E155F056CF4FA01E80FF91F61E070E06C0F7D1F3A
:20178000E60FF71FC0824F5F5F4FF0CFF7FE02C0E12CF12CD501A80DB91D40E050E08E0DB4
:2017A0009F1D4815590571F0FA01E80FF91F61E070E06C0F7D1FE60FF71F6E9160834F5F04
:2017C0005F4FEFCF81E090E08C0F9D1FE80EF91EF701E20FF31F108298014FA958ADBE0186
:2017E0006F5F7F4F8DA99EA90E94840AE8960FB6F894DEBF0FBECDBFDF91CF911F910F91BB
:20180000FF90EF90DF90CF90BF90AF909F908F907F906F905F904F903F902F900895DC012C
:2018200015967C936E931497FB01849116968C9316973196E4911796EC931797FB013296DF
:20184000E4911896EC931897FB013396649119966C9319971A961C9208950F931F93CF936E
:20186000DF931F92CDB7DEB78C01262F61E0FC01818129830E944D0F61E0F80181810E9482
:20188000890F61E0F80180810E94890F60E0F80181810E94890F60E0F80180810E94890F52
:2018A000298141E0F801608181810F90DF91CF911F910F910C94E20FCF93DF93EC0161E02F
:2018C00089810E944D0F60E089810E94890F61E088810E94890F61E089810E94890F60E033
:2018E0008981DF91CF910C944D0FCF93DF93EC0160E089810E944D0F61E088810E94890F85
:2019000089810E94B90F0197D9F360E08881DF91CF910C94890F0F931F93CF93DF931F92C5
:20192000CDB7DEB78C01262F61E0FC01818129830E944D0F298141E0F801608181810F907C
:20194000DF91CF911F910F910C94E20F1F93CF93DF93FC012381222351F184EE8093BC00E7
:201960008091BC0087FFFCCF88E78093BB0084EC8093BC008091BC0087FFFCCF1092BB0052
:2019800084EC8093BC008091BC0087FFFCCF6093BB0084EC8093BC008091BC0087FFFCCFDF
:2019A00084E98093BC00DF91CF911F910895162FEC0168E70E942D0CCE010E94750C60E040
:2019C000CE010E948B0CCE010E94750C612FCE010E948B0CCE010E94750CCE01DF91CF91E4
:2019E0001F910C945C0C1F93CF93DF93EC01162F61E80E94A60C612FCE01DF91CF911F91FB
:201A00000C94A60CDF92EF92FF920F931F93CF93DF93EC01F89461E20E94A60C60E0CE01AA
:201A20000E94A60C6FE7CE010E94A60C62E2CE010E94A60C60E0CE010E94A60C67E0CE01F9
:201A40000E94A60C8B818823E1F084EE8093BC008091BC0087FFFCCF88E78093BB0084EC9E
:201A60008093BC008091BC0087FFFCCF80E48093BB0084EC8093BC008091BC0087FFFCCFEA
:201A80000EC068E7CE010E942D0CCE010E94750C60E4CE010E948B0CCE010E94750C8E01C0
:201AA000055F1F4F7E0185EFE81A8BEFF80A84ECD82E8B81F801882351F080818093BB00AD
:201AC000D092BC008091BC0087FFFCCF07C06081CE010E948B0CCE010E94750C0F5F1F4F4C
:201AE0000E151F0531F78B81882321F084E98093BC0003C0CE010E945C0C7894DF91CF91FB
:201B00001F910F91FF90EF90DF900895CF93DF93EC018A818F3FD9F061E00E944D0F61E078
:201B20008A810E94890F61E070E080E090E00E94A20E60E08A810E94890F6AE070E080E02E
:201B400090E00E94A20E61E08A810E94890F8981823149F48881833131F481E08B83CE0123
:201B60000E94260905C01B8261E088810E944D0F6EEACE010E94A60C65EDCE010E94A60CFA
:201B800060E8CE010E94A60C68EACE010E94A60C6FE3CE010E94A60C63EDCE010E94A60C7D
:201BA00060E0CE010E94A60C60E4CE010E94A60C6DE8CE010E94A60C64E1CE010E94A60C7B
:201BC00060E2CE010E94A60C60E0CE010E94A60C61EACE010E94A60C68ECCE010E94A60C58
:201BE0006AEDCE010E94A60C62E1CE010E94A60C61E8CE010E94A60C6FECCE010E94A60C1B
:201C000069EDCE010E94A60C61EFCE010E94A60C6BEDCE010E94A60C60E4CE010E94A60CF6
:201C200064EACE010E94A60C66EACE010E94A60C6FEACE010E94A60CCE010E944309CE01B8
:201C40000E94020D1D821C82DF91CF9108951F920F920FB60F9211242F933F938F939F9354
:201C6000AF93BF9380918D0690918E06A0918F06B091900630918C0623E0230F2D3720F4DA
:201C80000196A11DB11D05C026E8230F0296A11DB11D20938C0680938D0690938E06A09323
:201CA0008F06B09390068091910690919206A0919306B09194060196A11DB11D80939106E3
:201CC00090939206A0939306B0939406BF91AF919F918F913F912F910F900FBE0F901F9076
:201CE00018952FB7F89460918D0670918E0680918F06909190062FBF08953FB7F894809131
:201D0000910690919206A0919306B091940626B5A89B05C02F3F19F00196A11DB11D3FBF53
:201D2000BA2FA92F982F8827820F911DA11DB11DBC01CD0142E0660F771F881F991F4A95AB
:201D4000D1F708958F929F92AF92BF92CF92DF92EF92FF926B017C010E947D0E4B015C0197
:201D6000C114D104E104F10401F10E948F130E947D0EDC01CB0188199909AA09BB09883E53
:201D80009340A105B10560F321E0C21AD108E108F10888EE880E83E0981EA11CB11CC114A5
:201DA000D104E104F10419F7DBCFFF90EF90DF90CF90BF90AF909F908F900895823091051D
:201DC00038F0880F991F880F991F05970197F1F70895789484B5826084BD84B5816084BDC1
:201DE00085B5826085BD85B5816085BDEEE6F0E0808181608083E1E8F0E010828081826091
:201E00008083808181608083E0E8F0E0808181608083E1EBF0E0808184608083E0EBF0E03E
:201E2000808181608083EAE7F0E08081846080838081826080838081816080838081806880
:201E400080831092C1000895833081F028F4813099F08230A1F008958730A9F08830B9F074
:201E60008430D1F4809180008F7D03C0809180008F7780938000089584B58F7702C084B588
:201E80008F7D84BD08958091B0008F7703C08091B0008F7D8093B0000895CF93DF9390E05D
:201EA000FC01E750FC4F2491FC01E05FFB4F8491882361F190E0880F991FFC01E55CFB4F0F
:201EC000C591D491FC01EF5CFB4FA591B491611109C09FB7F8948881209582238883EC9132
:201EE0002E230BC0623061F49FB7F8943881822F809583238883EC912E2B2C939FBF06C014
:201F00008FB7F894E8812E2B28838FBFDF91CF9108951F93CF93DF93282F30E0F901EE51A1
:201F2000FC4F8491F901E750FC4FD491F901E05FFB4FC491CC23C9F0162F81110E94240F34
:201F4000EC2FF0E0EE0FFF1FEF5CFB4FA591B4918FB7F894111105C09C91ED2FE095E923E8
:201F600002C0EC91ED2BEC938FBFDF91CF911F910895CF93DF93282F30E0F901EE51FC4F61
:201F80008491F901E750FC4FD491F901E05FFB4FC491CC2391F081110E94240FEC2FF0E0B1
:201FA000EE0FFF1FE95DFB4FA591B491EC91ED2381E090E021F480E002C080E090E0DF9126
:201FC000CF910895BF92CF92DF92EF92FF920F931F93CF93DF93C82ED62EB42EC7E0D0E074
:201FE000022F10E087E0E82EF12CB11005C0C7018C1B9D0B980102C098018C2F02C035954E
:2020000027958A95E2F7B901617077278C2D0E94890F61E08D2D0E94890F60E08D2D0E941F
:20202000890F219710F7DF91CF911F910F91FF90EF90DF90CF90BF900895FC01918D228D97
:20204000892F90E0805C9F4F821B91098F7399270895FC01918D828D981731F0828DE80FF8
:20206000F11D858D90E008958FEF9FEF0895FC01918D828D981761F0828DDF01A80FB11DEC
:202080005D968C91928D9F5F9F73928F90E008958FEF9FEF0895FC01538D448D252F30E018
:2020A000842F90E0821B930B541710F0CF960895019708958FEA91E1892B49F080E090E078
:2020C000892B29F00E94AF1181110C9400000895FC01848DDF01A80FB11DA35ABF4F2C91C7
:2020E000848D90E001968F739927848FA689B7892C93A089B1898C9180648C93938D848D11
:20210000981306C00288F389E02D80818F7D80830895CF93DF93EC01888D8823C9F0EA89E1
:20212000FB89808185FD05C0A889B9898C9186FD0FC00FB607FCF5CF808185FFF2CFA889EE
:20214000B9898C9185FFEDCFCE010E946810E7CFDF91CF910895EF92FF920F931F93CF930C
:20216000DF93EC0181E0888F9B8D8C8D981305C0E889F989808185FD24C0F62E0B8D10E0D1
:202180000F5F1F4F0F731127E02E8C8DE8120CC00FB607FCFACFE889F989808185FFF5CFEF
:2021A000CE010E946810F1CF8B8DFE01E80FF11DE35AFF4FF0820B8FEA89FB8980818062E9
:2021C00007C0EE89FF896083E889F98980818064808381E090E0DF91CF911F910F91FF90FB
:2021E000EF900895CF92DF92EF92FF921F93CF93DF93EC016A017B01122FE889F98982E0EF
:2022000080834115514E61057105B1F060E079E08DE390E0A70196010E94C915DA01C9016C
:202220000197A109B109B695A79597958795AC01411580E15807A8F0E889F989108260E8AB
:2022400074E88EE190E0A70196010E94C915BA01A90141505109610971097695679557955D
:202260004795EC85FD855083EE85FF854083188EEC89FD891083EA89FB89808180618083F2
:20228000EA89FB89808188608083EA89FB89808180688083EA89FB8980818F7D8083DF9101
:2022A000CF911F91FF90EF90DF90CF9008951F920F920FB60F9211242F938F939F93EF9310
:2022C000FF93E091A506F091A6068081E091AB06F091AC0682FD12C090818091AE068F5FB8
:2022E0008F732091AF06821751F0E091AE06F0E0EB56F94F958F8093AE0601C08081FF91E1
:20230000EF919F918F912F910F900FBE0F901F9018951F920F920FB60F9211242F933F9345
:202320004F935F936F937F938F939F93AF93BF93EF93FF9385E996E00E946810FF91EF91AB
:20234000BF91AF919F918F917F916F915F914F913F912F910F900FBE0F901F90189585E958
:2023600096E00E941D1021E0892B09F420E0822F0895E5E9F6E01382128288EE93E0A0E0E2
:20238000B0E084839583A683B7838EEB91E09183808385EC90E09587848784EC90E0978724
:2023A000868780EC90E0918B808B81EC90E0938B828B82EC90E0958B848B86EC90E0978BF4
:2023C000868B118E128E138E148E0895CF92DF92EF92FF920F931F93CF93DF936C017A01D9
:2023E0008B01C0E0D0E0CE15DF0589F0D8016D918D01D601ED91FC910190F081E02DC601A4
:202400000995892B11F47E0102C02196ECCFC701DF91CF911F910F91FF90EF90DF90CF90EE
:2024200008956115710579F0FB0101900020E9F73197AF01461B570BDC01ED91FC91028078
:20244000F381E02D099480E090E008950C9411126FE371E00C9411120F931F93CF93DF93A0
:20246000EC010E9411128C01CE010E942812800F911FDF91CF911F910F9108954F925F92A4
:202480006F927F92EF92FF920F931F93CF93DF93CDB7DEB7A1970FB6F894DEBF0FBECDBF58
:2024A0007C01FA01CB0119A2223008F42AE08E010F5D1F4F422E512C612C712CBF01A301E1
:2024C00092010E94C915F901CA01015011096A3014F4605D01C0695CD8016C93232B242B5F
:2024E000252B61F7B801C7010E941112A1960FB6F894DEBF0FBECDBFDF91CF911F910F9150
:20250000FF90EF907F906F905F904F9008952115310541F4DC01ED91FC910190F081E02D9C
:20252000642F09940C943E129A01462F50E060E070E00C9487120F931F93CF93DF93EC015D
:202540000E9487128C01CE010E942812800F911FDF91CF911F910F910895FC0180819181FC
:202560000C94BF16CF93DF93EC0188819981009711F00E94BF16198218821D821C821B82E4
:202580001A82DF91CF9108950F931F93CF93DF93EC018B016F5F7F4F888199810E945717C2
:2025A000009731F0998388831B830A8381E001C080E0DF91CF911F910F910895CF93DF93FE
:2025C000EC0188819981892B29F08A819B818617970760F4CE010E94C412882341F08C8138
:2025E0009D81892B19F4E881F981108281E0DF91CF910895EF92FF920F931F93CF93DF937F
:20260000EC017B018A01BA010E94DE12811104C0CE010E94B21207C01D830C83B701888137
:2026200099810E942A18CE01DF91CF911F910F91FF90EF900895FC011182108213821282B7
:20264000158214826115710551F0FB0101900020E9F73197AF01461B570B0C94FA1208950F
:20266000CF93DF93EC01FB018617970761F0608171816115710529F0448155810E94FA12F0
:2026800002C00E94B212CE01DF91CF910895FC011182108213821282158214820C9430137B
:2026A0000F931F93CF93DF934115510519F16115710501F1DC011496ED91FC9115972E17DB
:2026C0003F0718F0FB01108215C0E21BF30BEA012197EC17FD0708F4EF018B01FC0160814E
:2026E0007181620F731FAE01C8010E943118C00FD11F1882DF91CF911F910F9108950895CF
:202700000E94E90E0E947F130E94A306CAE5D0E10E943F082097E1F30E945A10F9CF08955C
:202720005058BB27AA270E94A8130C941D150E940F1538F00E94161520F039F49F3F19F42C
:2027400026F40C940C150EF4E095E7FB0C940615E92F0E942E1558F3BA1762077307840703
:20276000950720F079F4A6F50C9450150EF4E0950B2EBA2FA02D0B01B90190010C01CA010B
:20278000A0011124FF27591B99F0593F50F4503E68F11A16F040A22F232F342F4427585F75
:2027A000F3CF469537952795A795F0405395C9F77EF41F16BA0B620B730B840BBAF091506F
:2027C000A1F0FF0FBB1F661F771F881FC2F70EC0BA0F621F731F841F48F487957795679558
:2027E000B795F7959E3F08F0B0CF9395880F08F09927EE0F9795879508950E9411140C94ED
:202800001D150E94161558F00E940F1540F029F45F3F29F00C94061551110C9451150C94E4
:202820000C150E942E1568F39923B1F3552391F3951B550BBB27AA2762177307840738F072
:202840009F5F5F4F220F331F441FAA1FA9F335D00E2E3AF0E0E832D091505040E695001C44
:20286000CAF72BD0FE2F29D0660F771F881FBB1F261737074807AB07B0E809F0BB0B802D6A
:20288000BF01FF2793585F4F3AF09E3F510578F00C9406150C9451155F3FE4F3983ED4F321
:2028A000869577956795B795F7959F5FC9F7880F911D9695879597F90895E1E0660F771FDA
:2028C000881FBB1F621773078407BA0720F0621B730B840BBA0BEE1F88F7E09508950E9499
:2028E00076146894B1110C94511508950E94361588F09F5798F0B92F9927B751B0F0E1F0E9
:20290000660F771F881F991F1AF0BA95C9F714C0B13091F00E945015B1E008950C945015C4
:20292000672F782F8827B85F39F0B93FCCF3869577956795B395D9F73EF490958095709508
:2029400061957F4F8F4F9F4F0895E89409C097FB3EF490958095709561957F4F8F4F9F4F72
:202960009923A9F0F92F96E9BB279395F695879577956795B795F111F8CFFAF4BB0F11F4D0
:2029800060FF1BC06F5F7F4F8F4F9F4F16C0882311F096E911C0772321F09EE8872F762F37
:2029A00005C0662371F096E8862F70E060E02AF09A95660F771F881FDAF7880F96958795FB
:2029C00097F90895990F0008550FAA0BE0E8FEEF16161706E807F907C0F012161306E40738
:2029E000F50798F0621B730B840B950B39F40A2661F0232B242B252B21F408950A2609F4AF
:202A0000A140A6958FEF811D811D089597F99F6780E870E060E008959FEF80EC089500245D
:202A20000A941616170618060906089500240A9412161306140605060895092E0394000C46
:202A400011F4882352F0BB0F40F4BF2B11F460FF04C06F5F7F4F8F4F9F4F089557FD905833
:202A6000440F551F59F05F3F71F04795880F97FB991F61F09F3F79F08795089512161306F8
:202A80001406551FF2CF4695F1DF08C0161617061806991FF1CF8695710561050894089565
:202AA000E894BB2766277727CB0197F908950E94E21408F48FEF08950E946F150C941D15ED
:202AC0000E940F1538F00E94161520F0952311F00C9406150C940C1511240C9451150E9419
:202AE0002E1570F3959FC1F3950F50E0551F629FF001729FBB27F00DB11D639FAA27F00D80
:202B0000B11DAA1F649F6627B00DA11D661F829F2227B00DA11D621F739FB00DA11D621F1A
:202B2000839FA00D611D221F749F3327A00D611D231F849F600D211D822F762F6A2F11243B
:202B40009F5750409AF0F1F088234AF0EE0FFF1FBB1F661F771F881F91505040A9F79E3FFA
:202B6000510580F00C9406150C9451155F3FE4F3983ED4F3869577956795B795F795E79545
:202B80009F5FC1F7FE2B880F911D9695879597F90895A1E21A2EAA1BBB1BFD010DC0AA1FA3
:202BA000BB1FEE1FFF1FA217B307E407F50720F0A21BB30BE40BF50B661F771F881F991FC2
:202BC0001A9469F760957095809590959B01AC01BD01CF010895052E97FB1EF400940E9432
:202BE000021657FD07D00E94C91507FC03D04EF40C94021650954095309521953F4F4F4FE1
:202C00005F4F089590958095709561957F4F8F4F9F4F08950E941B16A59F900DB49F900D59
:202C2000A49F800D911D11240895EE0FFF1F0590F491E02D0994A29FB001B39FC001A39F1E
:202C4000700D811D1124911DB29F700D811D1124911D0895CF93DF938230910510F482E008
:202C600090E0E0913407F091350720E030E0C0E0D0E0309711F14081518148175907C0F050
:202C80004817590761F482819381209719F09B838A832BC0909335078093340726C021156A
:202CA000310519F04217530718F49A01BE01DF01EF010280F381E02DDCCF2115310509F1D8
:202CC000281B390B2430310590F412968D919C9113976115710521F0FB019383828304C0EA
:202CE0009093350780933407FD01329644C0FD01E20FF31F81939193225031092D933C93E9
:202D00003AC02091320730913307232B41F42091020130910301309333072093320720913E
:202D20000001309101012115310541F42DB73EB74091040150910501241B350BE09132076F
:202D4000F0913307E217F307A0F42E1B3F0B2817390778F0AC014E5F5F4F2417350748F000
:202D60004E0F5F1F50933307409332078193919302C0E0E0F0E0CF01DF91CF9108950F93E6
:202D80001F93CF93DF93009709F48CC0FC0132971382128200913407109135070115110509
:202DA00081F420813181820F931F20913207309133072817390779F5F0933307E0933207CD
:202DC00071C0D80140E050E0AE17BF0750F412962D913C911397AD012115310509F1D901FF
:202DE000F3CF9D01DA013383228360817181860F971F8217930769F4EC0128813981260F0A
:202E0000371F2E5F3F4F318320838A819B8193838283452B29F4F0933507E093340742C0AC
:202E20001396FC93EE931297ED01499159919E01240F351FE217F30771F480819181840F5A
:202E4000951F029611969C938E938281938113969C938E931297E0E0F0E0D80112968D9147
:202E60009C911397009719F0F8018C01F6CF8D919C9198012E5F3F4F820F931F2091320764
:202E8000309133072817390769F4309729F4109235071092340702C01382128210933307F4
:202EA00000933207DF91CF911F910F910895A0E0B0E0EDE5F7E10C944418EC01009721F43A
:202EC000CB010E942A16B8C0FC01E60FF71F9C0122503109E217F30708F4ACC0D9010D91A8
:202EE0001C91119706171707B0F00530110508F49FC0C80104978617970708F499C00250B6
:202F00001109061B170B019311936D937C93CF010E94BF168DC05B01A01AB10A4C01800ECD
:202F2000911EA0913407B091350740E050E0E12CF12C109709F44AC0A815B905D1F56D9093
:202F40007C901197630182E0C80ED11CCA14DB0480F1A3014A195B096A0182E0C80ED11C0B
:202F60001296BC9012971396AC91B5E0CB16D10440F0B282A38351834083D9016D937C9379
:202F80000AC00E5F1F4FC301800F911FF90191838083EB2DFA2FE114F10431F0D7011396AB
:202FA000FC93EE93129744C0F0933507E09334073FC08D919C9111974817590708F4AC018D
:202FC0007D0112960D90BC91A02DB3CF809132079091330788159905E1F446175707C8F466
:202FE0008091000190910101009741F48DB79EB74091040150910501841B950BE817F9073C
:20300000C8F4F0933307E0933207F901718360830FC0CB010E942A167C01009759F0A80137
:20302000BE010E942118CE010E94BF16C70104C0CE0102C080E090E0CDB7DEB7EEE00C943C
:203040006018FB01DC0102C001900D9241505040D8F70895FB01DC0101900D920020E1F79F
:203060000895FB01DC014150504048F001900D920020C9F701C01D9241505040E0F708956C
:203080002F923F924F925F926F927F928F929F92AF92BF92CF92DF92EF92FF920F931F939E
:2030A000CF93DF93CDB7DEB7CA1BDB0B0FB6F894DEBF0FBECDBF09942A88398848885F844E
:2030C0006E847D848C849B84AA84B984C884DF80EE80FD800C811B81AA81B981CE0FD11D74
:2030E0000FB6F894DEBF0FBECDBFED01089512E0C5E2D2E004C0FE010E9415162196C63274
:20310000D107C9F7F894FFCF00003607800000010203000371020000E8030000E2040000B3
:20312000C4090000A086010040420F0080969800001C9602A02526000D0A2053454E44203C
:20314000434F4E464947200D0A005245470020000D0A20414446343335315F667265715355
:2031600074657043757272656E743D0053544550004F55540064426D004E4F4C4F434B00D9
:203180002A002E00362E32350031300031322E3500313030006B487A004D487A004C4F5726
:2031A0002D4E4F4953452D4D4F4445004C4F572D535055522D4D4F4445002D34002D310098
:2031C000320000000000AB10E6114B1089101D10371029106E616E00696E66006F766600A5
:2031E000FFFFFFFFFFFFFFFFFFFFFFFFFFFFFFFFFFFFFFFFFFFFFFFFFFFFFFFFFFFFFFFFEF
:203200000895E1E0660F771F881FBB1F621773078407BA0720F0621B730B840BBA0BEE1F19
:2032200088F7E09508950E941A196894B1110C94F51908950E94DA1988F09F5798F0B92FAC
:203240009927B751B0F0E1F0660F771F881F991F1AF0BA95C9F714C0B13091F00E94F419CD
:20326000B1E008950C94F419672F782F8827B85F39F0B93FCCF3869577956795B395D9F755
:203280003EF490958095709561957F4F8F4F9F4F0895E89409C097FB3EF490958095709548
:2032A00061957F4F8F4F9F4F9923A9F0F92F96E9BB279395F695879577956795B795F1117B
:2032C000F8CFFAF4BB0F11F460FF1BC06F5F7F4F8F4F9F4F16C0882311F096E911C077235C
:2032E00021F09EE8872F762F05C0662371F096E8862F70E060E02AF09A95660F771F881F6F
:20330000DAF7880F9695879597F90895990F0008550FAA0BE0E8FEEF16161706E807F9071B
:20332000C0F012161306E407F50798F0621B730B840B950B39F40A2661F0232B242B252B68
:2033400021F408950A2609F4A140A6958FEF811D811D089597F99F6780E870E060E00895F0
:203360009FEF80EC089500240A941616170618060906089500240A941216130614060506B9
:203380000895092E0394000C11F4882352F0BB0F40F4BF2B11F460FF04C06F5F7F4F8F4F3A
:2033A0009F4F089557FD9058440F551F59F05F3F71F04795880F97FB991F61F09F3F79F0E2
:2033C00087950895121613061406551FF2CF4695F1DF08C0161617061806991FF1CF869537
:2033E0007105610508940895E894BB2766277727CB0197F908950E94861908F48FEF0895DE
:203400000E94131A0C94C1190E94B31938F00E94BA1920F0952311F00C94AA190C94B019C3
:2034200011240C94F5190E94D21970F3959FC1F3950F50E0551F629FF001729FBB27F00DA7
:20344000B11D639FAA27F00DB11DAA1F649F6627B00DA11D661F829F2227B00DA11D621F41
:20346000739FB00DA11D621F839FA00D611D221F749F3327A00D611D231F849F600D211D08
:20348000822F762F6A2F11249F5750409AF0F1F088234AF0EE0FFF1FBB1F661F771F881F7B
:2034A00091505040A9F79E3F510580F00C94AA190C94F5195F3FE4F3983ED4F3869577950E
:2034C0006795B795F795E7959F5FC1F7FE2B880F911D9695879597F908950E94DA19E8F097
:2034E0009E37E8F09639B8F49E3848F4672F782F8827985FF9CF86957795679593959539CE
:20350000D0F3B62FB1706B0F711D811D20F487957795679593950C94961A0C94B11A0C9481
:20352000F5190E948619880B990B0895882371F4772321F09850872B762F07C0662311F419
:2035400099270DC09051862B70E060E02AF09A95660F771F881FDAF7880F9695879597F982
:2035600008959F3F31F0915020F4879577956795B795880F911D9695879597F9089597FBFF
:20358000072E16F4009407D077FD09D00E941C1B07FC05D03EF4909581959F4F0895709586
:2035A00061957F4F0895A1E21A2EAA1BBB1BFD010DC0AA1FBB1FEE1FFF1FA217B307E4074D
:2035C000F50720F0A21BB30BE40BF50B661F771F881F991F1A9469F76095709580959095B9
:2035E0009B01AC01BD01CF010895052E97FB1EF400940E940C1B57FD07D00E94D31A07FC66
:2036000003D04EF40C940C1B50954095309521953F4F4F4F5F4F08959095809570956195ED
:203620007F4F8F4F9F4F0895B7FF0C94361B0E94361B821B930B0895AA1BBB1B51E107C04D
:20364000AA1FBB1FA617B70710F0A61BB70B881F991F5A95A9F780959095BC01CD01089579
:20366000EE0FFF1F0590F491E02D09940E94411BA59F900DB49F900DA49F800D911D1124E9
:203680000895A29FB001B39FC001A39F700D811D1124911DB29F700D811D1124911D08955C
:2036A000CF93DF938230910510F482E090E0E0910408F091050820E030E0C0E0D0E03097E6
:2036C00011F14081518148175907C0F04817590761F482819381209719F09B838A832BC0E5
:2036E000909305088093040826C02115310519F04217530718F49A01BE01DF01EF010280B5
:20370000F381E02DDCCF2115310509F1281B390B2430310590F412968D919C91139761156F
:20372000710521F0FB019383828304C09093050880930408FD01329644C0FD01E20FF31F0D
:2037400081939193225031092D933C933AC02091020830910308232B41F42091020130917D
:203760000301309303082093020820910001309101012115310541F42DB73EB740910401F5
:2037800050910501241B350BE0910208F0910308E217F307A0F42E1B3F0B2817390778F0BB
:2037A000AC014E5F5F4F2417350748F04E0F5F1F50930308409302088193919302C0E0E0F2
:2037C000F0E0CF01DF91CF9108950F931F93CF93DF93009709F48CC0FC01329713821282E5
:2037E00000910408109105080115110581F420813181820F931F2091020830910308281781
:20380000390779F5F0930308E093020871C0D80140E050E0AE17BF0750F412962D913C9193
:203820001397AD012115310509F1D901F3CF9D01DA013383228360817181860F971F8217A3
:20384000930769F4EC0128813981260F371F2E5F3F4F318320838A819B8193838283452B72
:2038600029F4F0930508E093040842C01396FC93EE931297ED01499159919E01240F351FE0
:20388000E217F30771F480819181840F951F029611969C938E938281938113969C938E93D7
:2038A0001297E0E0F0E0D80112968D919C911397009719F0F8018C01F6CF8D919C9198018A
:2038C0002E5F3F4F820F931F20910208309103082817390769F4309729F4109205081092F2
:2038E000040802C0138212821093030800930208DF91CF911F910F910895A0E0B0E0E3E8EE
:20390000FCE10C946A1DEC01009721F4CB010E94501BB8C0FC01E60FF71F9C012250310968
:20392000E217F30708F4ACC0D9010D911C91119706171707B0F00530110508F49FC0C80115
:2039400004978617970708F499C002501109061B170B019311936D937C93CF010E94E51BD4
:203960008DC05B01A01AB10A4C01800E911EA0910408B091050840E050E0E12CF12C1097F3
:2039800009F44AC0A815B905D1F56D907C901197630182E0C80ED11CCA14DB0480F1A301D3
:2039A0004A195B096A0182E0C80ED11C1296BC9012971396AC91B5E0CB16D10440F0B2827E
:2039C000A38351834083D9016D937C930AC00E5F1F4FC301800F911FF90191838083EB2D70
:2039E000FA2FE114F10431F0D7011396FC93EE93129744C0F0930508E09304083FC08D9129
:203A00009C9111974817590708F4AC017D0112960D90BC91A02DB3CF8091020890910308C3
:203A200088159905E1F446175707C8F48091000190910101009741F48DB79EB7409104018F
:203A400050910501841B950BE817F907C8F4F0930308E0930208F901718360830FC0CB010E
:203A60000E94501B7C01009759F0A801BE010E94471DCE010E94E51BC70104C0CE0102C0E0
:203A800080E090E0CDB7DEB7EEE00C94861DFB01DC0102C001900D9241505040D8F70895D4
:203AA000FB01DC0101900D920020E1F70895FB01DC014150504048F001900D920020C9F726
:203AC00001C01D9241505040E0F708952F923F924F925F926F927F928F929F92AF92BF9287
:203AE000CF92DF92EF92FF920F931F93CF93DF93CDB7DEB7CA1BDB0B0FB6F894DEBF0FBE1B
:203B0000CDBF09942A88398848885F846E847D848C849B84AA84B984C884DF80EE80FD8033
:203B20000C811B81AA81B981CE0FD11D0FB6F894DEBF0FBECDBFED01089512E0C5E2D2E00F
:203B400004C0FE010E94301B2196C632D107C9F7F894FFCF0000060880000001020300037D
:203B600071020000E8030000E2040000C4090000A086010040420F0080969800001C96021A
:203B8000A02526000D0A20504644467265713D000D0A204E5F496E743D000D0A204D5F4DE2
:203BA0006F643D000D0A20465F467261633D000D0A206F75746469763D000D0A20445F5225
:203BC0006644697653656C3D000D0A2053454E4420434F4E464947200D0A0052454700208F
:203BE000000D0A20414446343335315F667265715374657043757272656E743D0053544541
:203C000050004F55540064426D004E4F4C4F434B002A002E00626F626F626F626F626F62B4
:203C20006F626F6200362E32350031300031322E3500313030006B487A004D487A004C4F88
:203C4000572D4E4F4953452D4D4F4445004C4F572D535055522D4D4F4445002D34002D3196
:203C600000320000000000070A1715E3095B0A740AE6095C0A00000000DC1317157C13BA4D
:203C8000134E1368135A136E616E00696E66006F76660000FFFFFFFFFFFFFFFFFFFFFFFF0F
:203CA000FFFFFFFFFFFFFFFFFFFFFFFFFFFFFFFFFFFFFFFFFFFFFFFFFFFFFFFFFFFFFFFF24
:203CC000FFFFFFFFFFFFFFFFFFFFFFFFFFFFFFFFFFFFFFFFFFFFFFFFFFFFFFFFFFFFFFFF04
:203CE000FFFFFFFFFFFFFFFFFFFFFFFFFFFFFFFFFFFFFFFFFFFFFFFFFFFFFFFFFFFFFFFFE4
:203D0000FFFFFFFFFFFFFFFFFFFFFFFFFFFFFFFFFFFFFFFFFFFFFFFFFFFFFFFFFFFFFFFFC3
:207E000001C0ACC0112484B7882349F0982F9A70923029F081FF02C097EF94BFD7D085E00E
:207E20008093810082E08093C00088E18093C10086E08093C20080E18093C4008FE0B1D0D9
:207E4000259A84E020E33CEF91E0309385002093840096BBB09BFECF1D9AA8958150A9F713
:207E6000C0E0D0E092D0813471F48FD0182F9FD0123811F482E005C0113811F486E001C036
:207E800083E07CD068C0823411F484E103C0853419F485E094D05FC0853541F476D0C82F4E
:207EA00074D0D0E0D82BCC0FDD1F54C0863521F484E085D080E0E5CF843681F566D065D0A8
:207EC000D82E63D0F82E00E011E05FD0F80181938F01DE12FACF6BD0F5E4FF1201C0FFCF39
:207EE00040E050E063E0CE0139D07E0100E011E0F80140810E5F1F4F3196808150E0582BB7
:207F000061E0C7012BD0F2E0EF0EF11CD012F0CF40E050E065E0CE0121D01DC0843769F496
:207F200034D033D0182F31D042D07E01F70185917F0124D01150D1F70EC0853739F437D0F8
:207F40008EE11CD085E91AD08FE09BCF813511F488E027D02CD080E111D084CFFC010A01E2
:207F600067BFE895112407B600FCFDCF667029F0452B19F481E187BFE89508959091C00095
:207F800095FFFCCF8093C60008958091C00087FFFCCF8091C00084FD01C0A8958091C600C3
:207FA0000895E0E6F0E098E1908380830895EDDF803219F088E0F5DFFFCF84E1DFCFCF935C
:207FC000C82FE3DFC150E9F7CF91F1CF282E80E0E8DFE0E0FF270994FFFFFFFFFFFFFFFFDF
:207FE000FFFFFFFFFFFFFFFFFFFFFFFFFFFFFFFFFFFFFFFFFFFFFFFFFFFFFFFFFFFF020697
:00000001FF
