:200000000C94A5000C94CD000C94CD000C94CD000C94CD000C94CD000C94CD000C94CD00A0
:200020000C94CD000C94CD000C94CD000C94CD000C94CD000C94CD000C94CD000C94CD0058
:200040000C94D60C0C94CD000C94C50E0C94130F0C94CD000C94CD000C94CD000C94CD00C8
:200060000C94450B0C94CD0007634236B79BD8A71A39685618AEBAAB558C1D3CB7CC5763BD
:20008000BD6DEDFD753EF6177231BF000000803F08000000BE922449123EABAAAA2ABECDA2
:2000A000CCCC4C3E00000080BEABAAAAAA3E00000000BF000000803F0000000000084178BA
:2000C000D3BB4387D1133D190E3CC3BD4282AD2B3E68EC8276BED98FE1A93E4C80EFFFBE38
:2000E00001C4FF7F3F000000000000000000240027002A0000000000250028002B00000091
:20010000000023002600290004040404040404040202020202020303030303030102040820
:2001200010204080010204081020010204081020000000070002010000030406000000003A
:2001400000000000CF00B20A7F1011241FBECFEFD8E0DEBFCDBF11E0A0E0B1E0EAEEFDE21B
:2001600002C005900D92AA3FB107D9F713E0AAEFB1E001C01D92A33BB107E1F711E0CAE47E
:20018000D1E004C02297FE010E94EF16C434D107C9F70E94D5100C94F3160C940000CF92CA
:2001A000EF920F938BE292E068E04DE02CE00BE05AE0E52E39E0C32E0E94360A0F91EF9079
:2001C000CF9008950F931F93282F462F0BE212E0C801622F0E944909C80160E071E00E94DA
:2001E00009121F910F910895AF92BF92CF92DF92EF92FF920F931F93CF93DF931EE185C015
:2002000084E00E94710E892B49F480916B018F5F80936B018F3110F010926B0183E00E94AB
:20022000710E892B79F480916B01815080936B01882311F410936B0180916B018F3110F055
:2002400010926B0186E00E94710E892B41F490E080910902882309F491E09093090285E0E8
:200260000E94710E892B41F490E080910A02882309F491E090930A0282E060E00E94E20079
:200280008BE292E062E040E00E944909E0916B01F0E0EE0FFF1FE359FE4F608171818BE298
:2002A00092E04AE050E00E94A5118BE292E063E041E00E94490980910A02882329F48BE291
:2002C00092E066E071E004C08BE292E068E071E00E9409128BE292E064E041E00E944909E4
:2002E00080910902882329F48BE292E066E071E004C08BE292E06AE071E00E9409126EE556
:2003000071E080E090E00E941E0D89B18877883709F076CF90916B0180916C01891709F411
:2003200040C090936C01109207025FE1F52E35C08F9DB001112480916B01680F711D660F21
:20034000771F80E492E00E946F0A182F60910702C62FD0E0BE0135E0660F771F3A95E1F7AA
:200360006C1B7D0B80916B01680F711D660F771F6F5F7F4F80E492E00E946F0ACC0FDD1F7D
:20038000C55FDD4F00E09801280F311D39832883809107028F5F80930702809107028F30AB
:2003A00038F280910A028823E9F41092FC011092FB01FF240091FB011091FC0185E10E94DB
:2003C000BC0D080F191F1093FC010093FB0161E070E080E090E00E941E0DF39430E4F31604
:2003E00049F78CC01092FD011092FE011092FF01109200021092020210920102C0E0D0E04F
:2004000085E10E94BC0DAC019C0106E0220F331F0A95E1F780912102909122028217930735
:2004200000F58091010290910202019690930202809301029A0140E050E08091FD0190919F
:20044000FE01A091FF01B0910002820F931FA41FB51F8093FD019093FE01A093FF01B093A6
:200460000002219643E1C838D40751F6C0910102D0910202209711F16091FD017091FE011C
:200480008091FF019091000216E0660F771F881F991F1A95D1F79E0140E050E00E94CB16DF
:2004A0003093FC012093FB01CE0162E370E00E94A416709304026093030220C01092FC018D
:2004C0001092FB01FF240091FB011091FC0185E10E94BC0D080F191F1093FC010093FB01E1
:2004E00061E070E080E090E00E941E0DF39450E4F51649F71092040210920302A090FB014D
:20050000B090FC01E0900B02F0900C02EA14FB04C8F50091AB011091AC01B5016E197F0989
:2005200080E090E02091AD013091AE01A801421B530B9A01442737FD4095542F0E947916F5
:2005400024E630E040E050E00E94791620910D0230910E02A701421B530B9A0140E050E021
:200560000E94CB1684E690E0BC01069FC001079F900D169F900D1124820F931F90930602C3
:2005800080930502C0912702D0912802AC16BD06A0F5E091C701F091C80184E690E0E89F3E
:2005A0008001E99F100DF89F100D1124BE016A197B0980E090E02091C5013091C6012E1B4E
:2005C0003F0B442737FD4095542F0E94791624E630E040E050E00E94791620912502309175
:2005E00026022C1B3D0B40E050E00E94CB16021B130B1093060200930502AE14BF0408F074
:2006000053C0CA15DB0508F04FC080E0282F30E0E901CC0FDD1FFE01E55FFD4F00811181D7
:20062000982F9F5FA016B10610F4892FEFCF8093FA01F9013197EE0FFF1FDF01A555BE4F3C
:200640002D913C91E55FFD4FE080F18084E690E0289F6001299FD00C389FD00C1124B70168
:200660006A197B0980E090E0C555DE4FE881F9812E1B3F0B442737FD4095542F0E947916BE
:2006800024E630E040E050E00E947916E01AF10A00E010E0A80197010E94CB16C21AD30A7D
:2006A000D0920602C092050280910902813029F5009105021091060260916B0170E06F52DD
:2006C0007E4F660F771F80E492E00E946F0AF82E60916B0170E0660F771F6D557C4F80E482
:2006E00092E00E946F0A080F111D9F2D80E0080F191F10930602009305028AE060E00E941C
:20070000E2008BE292E06CE071E00E9409128BE292E06AE040E00E94490980910502909148
:2007200006028D599F4F8336910528F48BE292E06DE20E940E11809105029091060264E6F8
:2007400070E00E94B8168BE292E04AE050E00E94F6118BE292E06EE20E940E1180910502EF
:200760009091060297FD0BC064E670E00E94B8160A972CF48BE292E060E30E940E11209192
:2007800005023091060237FF18C0C90164E670E00E94B81684E690E0AC01649FC001659F58
:2007A000900D749F900D1124821B930B0A972CF48BE292E060E30E940E112091050230915F
:2007C000060237FF12C0C90164E670E00E94B81684E690E0AB01489FB001499F700D589FBB
:2007E000700D1124621B730B06C0C90164E670E00E94B816BC018BE292E04AE050E00E941A
:20080000F6112091050230910602C90168EE73E00E94B816EB0137FD1CC0C90168EE73E0FE
:200820000E94B816AA2797FDA095BA2FBC01CD010E94F71320E030E04AE754E40E945C1304
:200840009B01AC0160E070E080E291E40E940E1527C088EE93E0C89FB001C99F700DD89FDF
:20086000700D1124621B730B882777FD8095982F0E94F71320E030E04AE754E40E945C1396
:200880009B01AC0160E070E080E291E40E940E159B01AC0160E070E080E89FE30E945C130F
:2008A0007B018C018BE292E060E041E00E9449098BE292E06EE071E00E9409128BE292E0E1
:2008C00060E041E00E94490980910A02882331F08BE292E060E041E00E94490960910302B0
:2008E000709104028BE292E04AE050E00E94A51189E061E00E94E2008BE292E069E041E0E9
:200900000E9449098BE292E0A701B80122E030E00E94F0128BE292E06EE041E00E944909AB
:200920008BE292E062E171E00E9409128BE292E06EE041E00E9449098BE292E0BE014AE07D
:2009400050E00E94F611DF91CF911F910F91FF90EF90DF90CF90BF90AF9008955F926F92A5
:200960007F928F929F92AF92BF92CF92DF92EF92FF920F931F93CF93DF938BE292E00E94F5
:2009800078098BE292E060E040E00E9449098BE292E065E171E00E9409128BE292E068E049
:2009A00040E00E9449098BE292E069E171E00E9409128BE292E060E041E00E9449098BE24B
:2009C00092E06DE171E00E9409128BE292E069E041E00E9449098BE292E060E271E00E94F8
:2009E000091268EB7BE080E090E00E941E0D10920702C6EFDFEF1FE1C12E49C182E061E0C7
:200A00000E94E2008BE292E062E041E00E944909E0910702F0E0EE0FFF1FE555FE4F60814F
:200A200071818BE292E04AE050E00E94F6111092080223C183E060E00E94E2008BE292E04C
:200A400063E040E00E944909E0910802F0E0EE0FFF1FE359FE4F608171818BE292E04AE074
:200A600050E00E94A5118BE061E00E94E20081E993E06FE80E943F1061E070E080E090E038
:200A80000E941E0D81E993E068E70E943F1061E070E080E090E00E941E0D809108026AE0D9
:200AA0000E949816682F70E0605D7F4F81E993E00E943F1061E070E080E090E00E941E0D78
:200AC00020910802822F6AE00E9498168C9F602D1124620F70E0605D7F4F81E993E00E9458
:200AE0003F1061E070E080E090E00E941E0D809107026AE00E949816682F70E0605D7F4F53
:200B000081E993E00E943F1061E070E080E090E00E941E0D20910702822F6AE00E949816D4
:200B20008C9F602D1124620F70E0605D7F4F81E993E00E943F1061E070E080E090E00E94AB
:200B40001E0D81E993E00E94D50F892BA1F381E993E00E940610873609F084C006C061E029
:200B600070E080E090E00E941E0D81E993E00E94D50F892BA1F381E993E00E94061087368B
:200B800009F04DC01092FC011092FB01EE240091FB011091FC0185E10E94BC0D080F191FB5
:200BA0001093FC010093FB0161E070E080E090E00E941E0DE39420E4E21649F7609107022B
:200BC0006C9DB001112480910802680F711D660F771F4091FC0180E492E00E94760A609144
:200BE00007026C9DB001112480910802680F711D660F771F6F5F7F4F80E492E04091FB0193
:200C00000E94760A8BE292E06BE041E00E9449098BE292E068E271E00E94091223C0809148
:200C20000802823018F0815080930802809108028823C1F480910702823080F08150809367
:200C4000070210C08BE292E063E040E00E9449098BE292E06EE271E00E940912809107022E
:200C6000882381F36CE271E080E090E00E941E0D809108028F5F80930802809108028F3118
:200C800008F4D8CE809107028F5F80930702809107028F3008F4B2CE24C08BE292E06BE02B
:200CA00041E00E9449098BE292E069E371E00E9409126EEE72E080E090E00E941E0D8BE22E
:200CC00092E06BE041E00E9449098BE292E06FE371E00E9409126EEE72E080E090E00E94E3
:200CE0001E0D83E00E94710E0197B9F26EEE72E080E090E00E941E0D109208026FE1562E37
:200D000056EF852E5FEF952E4CE9642E4FEF742E5BC183E060E00E94E2008BE292E063E0BE
:200D200040E00E944909E0910802F0E0EE0FFF1FE359FE4F608171818BE292E04AE050E0A4
:200D40000E94A5118BE061E00E94E2001092070236C0859DB001112480910802680F711D42
:200D6000660F771F80E492E00E946F0A182F60910702C62FD0E0BE0195E0660F771F9A9523
:200D8000E1F76C1B7D0B80910802680F711D660F771F6F5F7F4F80E492E00E946F0ACC0FD9
:200DA000DD1FC55FDD4FB12EAA24A501480F511D59834883809107028F5F809307028091F3
:200DC00007028F3030F281E993E06FE80E943F1061E070E080E090E00E941E0D81E993E0F9
:200DE00068E70E943F1061E070E080E090E00E941E0D809108026AE00E949816682F70E0E9
:200E0000605D7F4F81E993E00E943F1061E070E080E090E00E941E0D20910802822F6AE095
:200E20000E949816889D602D1124620F70E0605D7F4F81E993E00E943F1061E070E080E070
:200E400090E00E941E0D81E993E060E30E943F1061E070E080E090E00E941E0D81E993E039
:200E600062E30E943F1061E070E080E090E00E941E0D81E993E00E94D50F892BA1F381E9F9
:200E800093E00E940610873609F099C006C061E070E080E090E00E941E0D81E993E00E94A5
:200EA000D50F892BA1F381E993E00E940610873609F085C01092FC011092FB01EE24009196
:200EC000FB011091FC0185E10E94BC0D080F191F1093FC010093FB0161E070E080E090E0C8
:200EE0000E941E0DE39450E4E51649F74091FB015091FC0180E0282F30E0E901CC0FDD1F0C
:200F0000FE01E55FFD4F008111818F5F4017510790F32093FA01F9013197EE0FFF1FDF01A4
:200F2000A55FBD4FED90FC90E555FE4FC080D180B701641B750B80E090E0C555DE4F288109
:200F40003981A601421B530B9A01442737FD4095542F0E94791624E630E040E050E00E94A6
:200F60007916E01AF10A00E010E0A80197010E94CB16C69CF001C79CF00DD69CF00D112402
:200F8000E20FF31FF0932A02E09329026091080270E06F527E4F660F771F80E492E04F2FC9
:200FA0000E94760A6091080270E0660F771F6D557C4F80E492E0409129020E94760A809127
:200FC00008028F5F80930802809108028F3108F4A0CE8BE292E060E040E00E9449098BE217
:200FE00092E065E471E00E94091260E177E280E090E00E941E0DDF91CF911F910F91FF9042
:20100000EF90DF90CF90BF90AF909F908F907F906F905F90089581E993E040E051EE60E091
:2010200070E00E944E0F84E060E00E94DE0D84E061E00E941D0E83E060E00E94DE0D83E02B
:2010400061E00E941D0E85E060E00E94DE0D85E061E00E941D0E86E060E00E94DE0D86E044
:2010600061E00E941D0E8BE292E060E142E020E00E94800984E00E94710E892B39F483E02C
:201080000E94710E892B11F40E94AE048BE292E00E9478098BE292E060E040E00E944909ED
:2010A0008BE292E062E571E00E9409128BE292E067E040E00E9449098BE292E065E571E048
:2010C0000E9409128BE292E066E041E00E9449098BE292E069E571E00E9409128BE292E0FF
:2010E00062E040E00E94490960917D0170917E018BE292E04AE050E00E94A51108950F93DB
:201100001F938C01FC01868160E00E941D0E81E090E00E94770DF801868161E00E941D0E7A
:2011200081E090E00E94770DF801868160E00E941D0E84E690E00E94770D1F910F910895BE
:20114000CF92DF92EF92FF920F931F93CF93DF93D82EC92E282F392FC9018C01C0E0D0E020
:20116000E62EFF24F801878161E00E94DE0DB7010C2E02C0759567950A94E2F76170F8016E
:2011800087810E941D0E21960F5F1F4FC830D10549F78D2D9C2D0E947F08DF91CF911F91AD
:2011A0000F91FF90EF90DF90CF900895CF92DF92EF92FF920F931F93CF93DF93D82EC92E0D
:2011C000282F392FC9018C01C0E0D0E0E62EFF24F801878161E00E94DE0DB7010C2E02C0EF
:2011E000759567950A94E2F76170F80187810E941D0E21960F5F1F4FC430D10549F78D2D7C
:201200009C2D0E947F08DF91CF911F910F91FF90EF90DF90CF9008951F93CF93DF93EC01D0
:20122000162F8C81642F0E941D0E8D818F3F19F060E00E941D0E8F8584FF05C0CE01612F4F
:201240000E94A0080EC0612F70E084E0759567958A95E1F7CE010E94D608CE01612F0E94E5
:20126000D608DF91CF911F91089541E00E940C0981E090E0089540E00E940C090895FC01BC
:201280006089862F8460808B6C60CF010E943B090895DF93CF93CDB7DEB728970FB6F894A5
:2012A000DEBF0FBECDBF9C01FE013196A2EDB1E088E00D9001928150E1F7F901838948170F
:2012C00010F0482F4150E42FF0E0EE0FFF1FEC0FFD1F8181680F6068C9010E943B09289642
:2012E0000FB6F894DEBF0FBECDBFCF91DF91089561E00E943B0980ED97E00E94770D08956C
:20130000CF93DF93EC01423018F08F8588608F874B8B1C8A222329F0413019F48F85846030
:201320008F8780E593EC0E94770D8C8160E00E941D0E8E8160E00E941D0E8D818F3F19F072
:2013400060E00E941D0E6F8564FD1DC0CE0163E00E94D60884E991E10E94770DCE0163E0A5
:201360000E94D60884E991E10E94770DCE0163E00E94D60886E990E00E94770DCE0162E040
:201380000E94D60816C06062CE010E943B0984E991E10E94770D6F856062CE010E943B0910
:2013A00086E990E00E94770D6F856062CE010E943B096F856062CE010E943B0984E0888BDB
:2013C000CE010E943F09CE010E94780982E0898BCE0166E00E943B09DF91CF9108956F9283
:2013E0007F928F92AF92CF92EF920F931F93DF93CF93CDB7DEB73C01162F842FF301448367
:2014000025830683E782C086A18682869D8593879E8594879F8595879889968761E00E94E2
:20142000DE0DF30185818F3F19F061E00E94DE0DF301868161E00E94DE0D112319F0F30128
:20144000178603C080E1F3018787C30160E141E020E00E948009CF91DF911F910F91EF90D9
:20146000CF90AF908F907F906F9008958F92AF92CF92EF920F931F93CF93DF93DC01362F56
:20148000542F722F102FAE2C8C2C13961C921E9212978EEC91E011969C938E9300D000D025
:2014A000EDB7FEB73196CDB7DEB71982118212821382CD0161E0432F2FEF052FE72EC12EC5
:2014C0000E94EF090F900F900F900F90DF91CF911F910F91EF90CF90AF908F900895F9996B
:2014E000FECF72BD61BDF89A80B50895F999FECF1FBA72BD61BD40BD0FB6F894FA9AF99A74
:201500000FBE08952091620230E080916102281B3109C901089540916102809162024817DC
:2015200018F02FEF3FEF0AC0E42FF0E0EF5BFD4F8081282F30E04F5F40936102C901089561
:20154000E091610280916202E81718F0EFEFFFEF06C0F0E0EF5BFD4F8081E82FF0E0CF018B
:2015600008950895109289021092880288EE93E0A0E0B0E080938A0290938B02A0938C02CF
:20158000B0938D028EED91E090938702809386020895CF92DF92EF92FF920F931F93CF930F
:2015A000DF937C016B018A01809185028823A1F0C0E0D0E00DC0D701ED91FC91D601AC0FDF
:2015C000BD1F0190F081E02DC7016C9109952196C017D10780F304C0CB01642F0E942A0BEA
:2015E000C801DF91CF911F910F91FF90EF90DF90CF900895DF93CF930F92CDB7DEB7FC01FE
:201600006983809185028823C9F080918402803238F081E090E09383828320E030E015C0A0
:2016200080918302E82FF0E0ED59FD4F998190838F5F809383028093840205C0CE01019624
:2016400061E00E942A0B21E030E0C9010F90CF91DF910895482F613210F081E00895809172
:201660009202843011F082E008956093DD02ACEBB2E0842F9C01F90102C081918D938E2F2C
:20168000841B8617D0F380E008951F920F920FB60F9211242F933F934F935F936F937F93E5
:2016A0008F939F93AF93BF93EF93FF938091B90090E0887F90708036910509F4F2C081363B
:2016C0009105CCF58832910509F47BC089329105B4F48031910509F46FC0813191053CF447
:2016E000009709F447C1089709F04FC165C08831910509F466C0809709F047C182C0803401
:20170000910509F4A4C08134910544F48033910509F482C0C89709F038C189C080359105E2
:2017200009F489C08835910509F496C08834910509F02BC1AEC08839910509F413C189392E
:201740009105ECF48837910509F4ABC0893791054CF48836910509F4A4C08037910509F0C5
:2017600014C19FC08838910509F4FCC08039910509F49DC08038910509F007C198C0803B5B
:20178000910509F4C6C0813B91054CF4803A910509F49FC0883A910509F0F7C0BAC0803CB4
:2017A000910509F4E3C0883C910509F4DFC0883B910509F0EAC0C2C0809193028093BB000B
:2017C000CFC09091BA028091BB02981768F49091BA02E92FF0E0E656FD4F80818093BB00A8
:2017E0009F5F9093BA02BCC080919402882309F44BC085ED8093BC008091BC0084FDFCCFDC
:20180000C2C080E28093FF0285ED8093BC008091BC0084FDFCCFB7C080E38093FF0285ED16
:201820008093BC008091BC0084FDFCCFACC088E38093FF029BC08091BA029091BB00E82FBA
:20184000F0E0E656FD4F90838F5F8093BA029091BA028091BB0282C08091BA029091BB00CA
:20186000E82FF0E0E656FD4F90838F5F8093BA0280919402882341F085ED8093BC00809154
:20188000BC0084FDFCCF7FC081E08093950284EA6EC085ED8093BC008091BC0084FDFCCF00
:2018A00072C083E0809392021092FE0259C08091FE02803208F056C08091FE029091BB0073
:2018C000E82FF0E0E252FD4F90838F5F8093FE0247C08091FE02803230F4E091FE02F0E05E
:2018E000E252FD4F108285ED8093BC008091BC0084FDFCCF109292026091FE02E09198024A
:20190000F09199028EED92E070E009951092FE022DC084E0809392021092DC021092DD0235
:20192000E0919602F091970209958091DD02882329F481E08093DD021092BC029091DC027C
:20194000E92FF0E0E454FD4F80818093BB009F5F9093DC029091DC028091DD02981710F4AB
:2019600085EC01C085E88093BC000FC085EC8093BC0009C01092FF0285ED8093BC0080912C
:20198000BC0084FDFCCF10929202FF91EF91BF91AF919F918F917F916F915F914F913F9169
:2019A0002F910F900FBE0F901F9018951F920F920FB60F9211242F933F938F939F93AF93E9
:2019C000BF938091040390910503A0910603B0910703309108030196A11DB11D232F2D5F22
:2019E0002D3720F02D570196A11DB11D209308038093040390930503A0930603B093070340
:201A00008091000390910103A0910203B09103030196A11DB11D8093000390930103A0937D
:201A20000203B0930303BF91AF919F918F913F912F910F900FBE0F901F9018959B01AC0138
:201A40007FB7F8948091000390910103A0910203B091030366B5A89B05C06F3F19F001969D
:201A6000A11DB11D7FBFBA2FA92F982F8827860F911DA11DB11D62E0880F991FAA1FBB1F62
:201A80006A95D1F7BC012DC0FFB7F8948091000390910103A0910203B0910303E6B5A89BFF
:201AA00005C0EF3F19F00196A11DB11DFFBFBA2FA92F982F88278E0F911DA11DB11DE2E079
:201AC000880F991FAA1FBB1FEA95D1F7861B970B885E9340C8F2215030404040504068516D
:201AE0007C4F211531054105510571F60895019739F0880F991F880F991F02970197F1F797
:201B00000895789484B5826084BD84B5816084BD85B5826085BD85B5816085BDEEE6F0E006
:201B2000808181608083E1E8F0E01082808182608083808181608083E0E8F0E08081816050
:201B40008083E1EBF0E0808184608083E0EBF0E0808181608083EAE7F0E0808184608083F5
:201B60008081826080838081816080838081806880831092C1000895982F8E3008F09E5043
:201B800097708091C9018295880F880F807C892B80937C0080917A00806480937A008091D2
:201BA0007A0086FDFCCF2091780040917900942F80E030E0282B392BC9010895CF93DF93C5
:201BC000482F50E0CA01845E9E4FFC013491485F5E4FFA018491882369F190E0880F991FDA
:201BE000FC01E651FF4FA591B491FC01EC50FF4FC591D491662351F42FB7F8948C91932F87
:201C0000909589238C93888189230BC0623061F42FB7F8948C91932F909589238C93888123
:201C2000832B88832FBF06C09FB7F8948C91832B8C939FBFDF91CF910895482F50E0CA012E
:201C4000805D9E4FFC012491CA01845E9E4FFC019491485F5E4FFA013491332309F440C0E5
:201C6000222351F1233071F0243028F42130A1F0223011F514C02630B1F02730C1F0243058
:201C8000D9F404C0809180008F7703C0809180008F7D8093800010C084B58F7702C084B51F
:201CA0008F7D84BD09C08091B0008F7703C08091B0008F7D8093B000E32FF0E0EE0FFF1FF7
:201CC000EC50FF4FA591B4912FB7F894662321F48C919095892302C08C91892B8C932FBF61
:201CE0000895682F70E0CB01805D9E4FFC012491CB01845E9E4FFC014491685F7E4FFB011B
:201D00009491992319F420E030E03CC0222351F1233071F0243028F42130A1F0223011F5E4
:201D200014C02630B1F02730C1F02430D9F404C0809180008F7703C0809180008F7D8093E1
:201D4000800010C084B58F7702C084B58F7D84BD09C08091B0008F7703C08091B0008F7D8C
:201D60008093B000892F90E0880F991F82509F4FFC01A591B4918C9120E030E0842311F01C
:201D800021E030E0C901089508951F920F920FB60F9211242F933F934F938F939F93EF93F5
:201DA000FF938091C00082FD1DC04091C6002091490330914A032F5F3F4F2F733070809153
:201DC0004B0390914C032817390771F0E0914903F0914A03E75FFC4F408330934A032093C3
:201DE000490302C08091C600FF91EF919F918F914F913F912F910F900FBE0F901F901895C7
:201E0000E0919D03F0919E03E05CFF4F8191919120813181821B930B8F739070892B11F08C
:201E20000E94C40E08951F920F920FB60F9211242F933F938F939F93EF93FF9320918D0367
:201E400030918E0380918F03909190032817390731F48091C1008F7D8093C10014C0E0913E
:201E60008F03F0919003E35BFC4F208180918F039091900301968F739070909390038093D9
:201E80008F032093C600FF91EF919F918F913F912F910F900FBE0F901F901895AF92BF924E
:201EA000DF92EF92FF920F931F93CF93DF93EC017A018B01DD24403081EE580780E0680775
:201EC00080E0780711F0DD24D39491E0A92EB12CEC89FD89DD2069F0C50108A002C0880F7D
:201EE000991F0A94E2F7808360E079E08DE390E005C0108260E874E88EE190E0A80197011C
:201F00000E94CB162150304040405040569547953795279580E12030380720F0DD2011F000
:201F2000DD24D6CFE889F9893083EA89FB89208319A2EE89FF89408121E030E0C9010C8CCD
:201F400002C0880F991F0A94E2F7482B4083EE89FF894081C9010D8C02C0880F991F0A94F1
:201F6000E2F7482B4083EE89FF894081C9010E8C02C0880F991F0A94E2F7482B4083EE89F9
:201F8000FF8980810F8C02C0220F331F0A94E2F7209528232083DF91CF911F910F91FF900F
:201FA000EF90DF90BF90AF900895DC011C96ED91FC911D97E05CFF4F2191319180819181A9
:201FC000281B390B2F733070C9010895DC011C96ED91FC911D97E05CFF4F20813181E05472
:201FE000F040DF01AE5BBF4F8D919C9111972817390719F42FEF3FEF07C08D919C91E80FE6
:20200000F91F8081282F30E0C9010895DC011C96ED91FC911D97E05CFF4F20813181E0547A
:20202000F040DF01AE5BBF4F8D919C9111972817390719F42FEF3FEF10C08D919C911197EB
:20204000E80FF91F20818D919C91119701968F73907011969C938E9330E0C9010895DC01F9
:2020600091968C919197882339F05496ED91FC915597808186FFF9CF91961C920895CF931D
:20208000DF93EC01EE85FF85E05CFF4F20813181E054F0402F5F3F4F2F733070DF01AE5B62
:2020A000BF4F8D919C91119728173907D1F3E05CFF4F80819181E054F040E80FF91F6083E9
:2020C000EE85FF85E05CFF4F31832083EE89FF89208181E090E00F8C02C0880F991F0A946D
:2020E000E2F7282B208381E089A3EC89FD8980818064808381E090E0DF91CF9108951092C1
:2021000094031092930388EE93E0A0E0B0E08093950390939603A0939703B09398038EEE69
:2021200091E0909392038093910389E093E090939E0380939D038DE493E09093A0038093BF
:202140009F0385EC90E09093A2038093A10384EC90E09093A4038093A30380EC90E090931B
:20216000A6038093A50381EC90E09093A8038093A70382EC90E09093AA038093A90386ECB4
:2021800090E09093AC038093AB0384E08093AD0383E08093AE0387E08093AF0385E080934A
:2021A000B00381E08093B1030895CF93DF930E94810D0E940B08C0E0DFE00E94F400209742
:2021C000E1F30E94000FF9CFCF92DF92EF92FF920F931F93CF93DF937C016B018A01C0E092
:2021E000D0E00FC0D6016D916D01D701ED91FC910190F081E02DC7010995C80FD91F0150A5
:2022000010400115110571F7CE01DF91CF911F910F91FF90EF90DF90CF900895DC01ED9117
:20222000FC910190F081E02D09950895CF93DF93EC016115710519F420E030E00FC0DB0152
:202240000D900020E9F71197A61BB70BE881F9810280F381E02DAD0109959C01C901DF91AD
:20226000CF9108954F925F927F928F929F92AF92BF92CF92DF92EF92FF920F931F93DF93F0
:20228000CF93CDB7DEB7A1970FB6F894DEBF0FBECDBF2C01742ECB01223008F42AE019A296
:2022A00031E2C32ED12CCC0EDD1E822E9924AA24BB24672D752FA50194010E94CB167901BE
:2022C0008A01C801B701A50194010E947916472D461B0894C108D1084A3014F4405D01C093
:2022E000495CF6014083E114F1040105110521F07E2C5F2DC801DDCFC201B6010E9416117A
:20230000A1960FB6F894DEBF0FBECDBFCF91DF911F910F91FF90EF90DF90CF90BF90AF90B5
:202320009F908F907F905F904F900895DC012115310541F4ED91FC910190F081E02D642FAA
:20234000099508950E9432110895EF92FF920F931F939A017B0100E010E0B801A7010E9470
:2023600096111F910F91FF90EF900895CF92DF92EF92FF920F931F93CF93DF93EC016A0157
:202380007B012115310541F4E881F9810190F081E02D642F09951FC02A303105D1F477FF53
:2023A00017C0E881F9810190F081E02D6DE209958C0144275527BA014C195D096E097F096E
:2023C000CE012AE00E9432119801280F391F04C02AE00E9432119C01C901DF91CF911F917D
:2023E0000F91FF90EF90DF90CF900895EF92FF920F931F937B019A010027F7FC0095102F59
:20240000B801A7010E94B6111F910F91FF90EF9008950E94161108957F928F929F92AF92ED
:20242000BF92CF92DF92EF92FF920F931F93CF93DF934C017A018B01722ECB01BA01A8011B
:2024400097010E945A15882321F0C4016DE571E021C0C0E0D0E057016801E894D7F8C601AB
:20246000B5012FEF3FEF4FE75FE70E945A15882351F4C601B5012FEF3FEF4FE75FE70E94F6
:202480005813181614F0C1E0D0E0219739F0C40161E671E00E941611EC0193C0C801B70186
:2024A0002FEF3FEF4FE75FE40E94A714181654F0C801B7012FEF3FEF4FE75FEC0E9458132D
:2024C000882324F4C40165E671E0E4CFC801B70120E030E040E050E00E94581387FD03C0F0
:2024E000C0E0D0E00EC0D401ED91FC910190F081E02DC4016DE20995EC0117FB109517F969
:20250000109520E030E040E05FE3DD240BC0CA01B90120E030E040E251E40E945C139B013F
:20252000AC01D394D71498F3C801B7010E94F4125B016C010E94C9137B018C01C401B8011A
:20254000A7012AE030E00E949611C80FD91F772039F0C40169E671E00E941611C80FD91FE4
:20256000C801B7010E94F5139B01AC01C601B5010E94F31224C020E030E040E251E40E94D6
:20258000AB147B018C010E94C4135B016C01CC24B7FCC094DC2CC401B601A5012AE030E0F6
:2025A0000E94B611C80FD91FC601B5010E94F7139B01AC01C801B7010E94F3127A947720A4
:2025C000D1F6CE01DF91CF911F910F91FF90EF90DF90CF90BF90AF909F908F907F900895E1
:2025E0000E940C1208955058BB27AA270ED075C166D130F06BD120F031F49F3F11F41EF452
:202600005BC10EF4E095E7FB51C1E92F77D180F3BA17620773078407950718F071F49EF585
:202620008FC10EF4E0950B2EBA2FA02D0B01B90190010C01CA01A0011124FF27591B99F0BC
:20264000593F50F4503E68F11A16F040A22F232F342F4427585FF3CF469537952795A7954E
:20266000F0405395C9F77EF41F16BA0B620B730B840BBAF09150A1F0FF0FBB1F661F771F7D
:20268000881FC2F70EC0BA0F621F731F841F48F4879577956795B795F7959E3F08F0B3CFFE
:2026A0009395880F08F09927EE0F979587950895D9D008F481E008950CD00FC107D140F06A
:2026C000FED030F021F45F3F19F0F0C0511139C1F3C014D198F39923C9F35523B1F3951BDD
:2026E000550BBB27AA2762177307840738F09F5F5F4F220F331F441FAA1FA9F333D00E2EEB
:202700003AF0E0E830D091505040E695001CCAF729D0FE2F27D0660F771F881FBB1F261718
:2027200037074807AB07B0E809F0BB0B802DBF01FF2793585F4F2AF09E3F510568F0B6C0BC
:2027400000C15F3FECF3983EDCF3869577956795B795F7959F5FC9F7880F911D9695879551
:2027600097F90895E1E0660F771F881FBB1F621773078407BA0720F0621B730B840BBA0B41
:20278000EE1F88F7E095089504D06894B111D9C00895BCD088F09F5790F0B92F9927B751A9
:2027A000A0F0D1F0660F771F881F991F1AF0BA95C9F712C0B13081F0C3D0B1E00895C0C0E0
:2027C000672F782F8827B85F39F0B93FCCF3869577956795B395D9F73EF49095809570956A
:2027E00061957F4F8F4F9F4F0895E89409C097FB3EF490958095709561957F4F8F4F9F4FD4
:202800009923A9F0F92F96E9BB279395F695879577956795B795F111F8CFFAF4BB0F11F431
:2028200060FF1BC06F5F7F4F8F4F9F4F16C0882311F096E911C0772321F09EE8872F762F98
:2028400005C0662371F096E8862F70E060E02AF09A95660F771F881FDAF7880F969587955C
:2028600097F90895990F0008550FAA0BE0E8FEEF16161706E807F907C0F012161306E40799
:20288000F50798F0621B730B840B950B39F40A2661F0232B242B252B21F408950A2609F410
:2028A000A140A6958FEF811D811D089597F99F6780E870E060E008959FEF80EC08950024BF
:2028C0000A941616170618060906089500240A9412161306140605060895092E0394000CA8
:2028E00011F4882352F0BB0F40F4BF2B11F460FF04C06F5F7F4F8F4F9F4F089557FD905895
:20290000440F551F59F05F3F71F04795880F97FB991F61F09F3F79F0879508951216130659
:202920001406551FF2CF4695F1DF08C0161617061806991FF1CF86957105610508940895C6
:20294000E894BB2766277727CB0197F908958ADF08F48FEF08950BD0C0CFB1DF28F0B6DFCE
:2029600018F0952309F0A2CFA7CF1124EACFC6DFA0F3959FD1F3950F50E0551F629FF0015F
:20298000729FBB27F00DB11D639FAA27F00DB11DAA1F649F6627B00DA11D661F829F222718
:2029A000B00DA11D621F739FB00DA11D621F839FA00D611D221F749F3327A00D611D231FA5
:2029C000849F600D211D822F762F6A2F11249F5750408AF0E1F088234AF0EE0FFF1FBB1F5A
:2029E000661F771F881F91505040A9F79E3F510570F05CCFA6CF5F3FECF3983EDCF3869594
:202A000077956795B795F795E7959F5FC1F7FE2B880F911D9695879597F90895FA01EE0FCA
:202A2000FF1F30962105310599F16115710561F48038BFE39B0749F168949038810561F0BA
:202A40008038BFEF9B0741F0992342F5FF3FE1053105210511F1E8940894E795D901AA238D
:202A600029F4AB2FBE2FF85FD0F310C0FF5F70F4A695E0F7F73950F019F0FF3A38F49F77C0
:202A80009F930CD00F9007FC905808953EF014CF60E070E080E89FE308954FE79F775F939B
:202AA0004F933F932F93A2D02F913F914F915F9152DF09C0D7DE880B990B089519F40EF040
:202AC000F5CE3ECFF9CE22DFC8F39638C0F707F80F92E8942BE33AEA48EB5FE74ADF0F928D
:202AE0000F920F924DB75EB70F92C0D0E8E6F0E016D04F915F91EF91FF91E595EE1FFF1F41
:202B000049F0FE57E0684427EE0F441FFA95E1F74195550B32D00F9007FE26C00895DF93DC
:202B2000CF931F930F93FF92EF92DF927B018C01689405C0DA2EEF011ADFFE01E894A591F0
:202B40002591359145915591AEF3EF015EDDFE019701A801DA9479F7DF90EF90FF900F9136
:202B60001F91CF91DF9108959B01AC0160E070E080E89FE3A1CD9ACEACC0C8DEE8F39923F6
:202B8000D9F3940F511DBBF39150504094F059F0882332F0660F771F881F91505040C1F7C4
:202BA0009E3F510544F7880F911D9695879597F908955F3FACF0983E9CF0BB278695779549
:202BC0006795B79508F4B1609395C1F7BB0F58F711F460FFE8CF6F5F7F4F8F4F9F4FE3CF72
:202BE000B0CE0EF076C068CE689460CE8FDEC8F39923D1F3C6F3DF93CF931F930F93FF92A9
:202C0000C92FDD2788232AF02197660F771F881FDAF720E030E040E85FEB9FE3883920F0E3
:202C2000803E30F021968F77DFDCE0E9F0E003C0DBDCEDEBF0E073DF8B01BE01EC01FB2ED0
:202C40006F5771097595771F880B990BD0DD28E132E741E35FE38BDEAF2D9801AE01FF900C
:202C60000F911F91CF91DF91D0DC37CEFA01DC01AA0FBB1F9B01AC01BF5728F422273327FA
:202C8000442750781FC0B75188F4AB2F0024469537952795011CA395D2F3002069F0220F79
:202CA000331F441FB395DAF30DD09DCC61307105A0E88A07B94630F49B01AC01662777274D
:202CC00088279078309621F0208331834283538308959F3F49F0915028F4869577956795A0
:202CE000B7959F5F80389F4F880F9695879597F90895629FD001739FF001829FE00DF11DE8
:202D0000649FE00DF11D929FF00D839FF00D749FF00D659FF00D9927729FB00DE11DF91FB3
:202D2000639FB00DE11DF91FBD01CF0111240895991B79E004C0991F961708F0961B881FD8
:202D40007A95C9F780950895AA1BBB1B51E107C0AA1FBB1FA617B70710F0A61BB70B881F16
:202D6000991F5A95A9F780959095BC01CD01089597FB092E07260AD077FD04D0E5DF06D0F8
:202D800000201AF4709561957F4F0895F6F7909581959F4F0895A1E21A2EAA1BBB1BFD0188
:202DA0000DC0AA1FBB1FEE1FFF1FA217B307E407F50720F0A21BB30BE40BF50B661F771F89
:202DC000881F991F1A9469F760957095809590959B01AC01BD01CF010895EE0FFF1F05902E
:202DE000F491E02D0994F894FFCF2020202020002D002500610020002020200020200046F1
:202E0000723D0044743D00413D00573D202020202000575249544500204641494C21212132
:202E20002020002D33306462002020462D200020202046696E69636820202000463D004451
:202E4000623D006D573D006E616E00696E66006F7666002E00080590009001B101D60164C4
:202E6000039303E8034C04B004140550050807340860098809B0098C0AB80BE40CD80E042B
:202E80001030115C12241350141815E0154416A8160C177017020001000000FFFFFEFFFDF9
:202EA000FFFBFFF6FFF1FFECFFE2FFDDFFD8FFD3FFCEFF01000000003509E41000004000A3
:202EC0001400540000000000FA0AC90A820A8B0AA00AB10A000000003F10E410D50F0610F0
:202EE000E60F2F10FFFFFFFFFFFFFFFFFFFFFFFFFFFFFFFFFFFFFFFFFFFFFFFFFFFFFFFFBA
:202F0000FFFFFFFFFFFFFFFFFFFFFFFFFFFFFFFFFFFFFFFFFFFFFFFFFFFFFFFFFFFFFFFFD1
:202F2000FFFFFFFFFFFFFFFFFFFFFFFFFFFFFFFFFFFFFFFFFFFFFFFFFFFFFFFFFFFFFFFFB1
:202F4000FFFFFFFFFFFFFFFFFFFFFFFFFFFFFFFFFFFFFFFFFFFFFFFFFFFFFFFFFFFFFFFF91
:202F6000FFFFFFFFFFFFFFFFFFFFFFFFFFFFFFFFFFFFFFFFFFFFFFFFFFFFFFFFFFFFFFFF71
:207800000C94343C0C94513C0C94513C0C94513C0C94513C0C94513C0C94513C0C94513C1D
:207820000C94513C0C94513C0C94513C0C94513C0C94513C0C94513C0C94513C0C94513CE0
:207840000C94513C0C94513C0C94513C0C94513C0C94513C0C94513C0C94513C0C94513CC0
:207860000C94513C0C94513C11241FBECFEFD8E0DEBFCDBF11E0A0E0B1E0ECE9FFE702C07E
:2078800005900D92A230B107D9F712E0A2E0B1E001C01D92AD30B107E1F70E942D3D0C94CC
:2078A000CC3F0C94003C982F9595959595959595905D8F708A307CF0282F295A8091C000B5
:2078C00085FFFCCF9093C6008091C00085FFFCCF2093C6000895282F205DF0CF982F8091CF
:2078E000C00085FFFCCF9093C6000895EF92FF920F931F93EE24FF2487018091C00087FD7B
:2079000017C00894E11CF11C011D111D81E4E81682E4F8068FE0080780E0180770F3E09106
:207920000401F091050109958091C00087FFE9CF8091C6001F910F91FF90EF9008950E949A
:20794000763C982F8091C00085FFFCCF9093C60091362CF490330CF09053892F08959755DB
:20796000892F08951F930E949F3C182F0E949F3C1295107F810F1F9108951F93182F882308
:2079800021F00E94763C1150E1F71F9108951F93182F0E94763C803249F0809103018F5FC1
:2079A000809303018530C1F01F9108958091C00085FFFCCF84E18093C6008091C00085FF4A
:2079C000FCCF1093C6008091C00085FFFCCF80E18093C6001F910895E0910401F0910501CF
:2079E00009951F9108950E94763C803241F0809103018F5F80930301853081F00895809177
:207A0000C00085FFFCCF84E18093C6008091C00085FFFCCF80E18093C6000895E0910401AC
:207A2000F09105010995089540E951E08823A1F02D9A28EE33E0FA013197F1F72150304072
:207A4000D1F72D9828EE33E0FA013197F1F721503040D1F7815061F708953F924F925F92B3
:207A60006F927F928F929F92AF92BF92CF92DF92EF92FF920F931F93CF93DF93000080E1A3
:207A80008093C4001092C50088E18093C10086E08093C2005098589A259A81E00E94143D43
:207AA00024E1F22E9EE1E92E85E9D82E0FE0C02E10E1B12EAA24A394B1E49B2EA6E58A2E44
:207AC000F2E57F2EE0E26E2E79E4572E63E5462E50E5352E0E94763C8033B1F18133B9F187
:207AE000803409F46FC0813409F476C0823409F485C0853409F488C0803531F1823521F128
:207B0000813511F1853509F485C0863509F48DC0843609F496C0843709F403C1853709F46A
:207B200072C1863709F466C0809103018F5F80930301853079F6E0910401F0910501099559
:207B40000E94763C803351F60E94F33CC3CF0E94763C803249F78091C00085FFFCCFF0928C
:207B6000C6008091C00085FFFCCF9092C6008091C00085FFFCCF8092C6008091C00085FFEA
:207B8000FCCF7092C6008091C00085FFFCCF6092C6008091C00085FFFCCF5092C6008091A1
:207BA000C00085FFFCCF4092C6008091C00085FFFCCF3092C6008091C00085FFFCCFB09214
:207BC000C60088CF0E94763C863808F4BDCF0E94763C0E94F33C7ECF0E94763C803809F473
:207BE0009CC0813809F40BC1823809F43CC1883909F48FC080E00E94C73C6CCF84E10E949F
:207C0000BD3C0E94F33C66CF85E00E94BD3C0E94F33C60CF0E94763C809306010E94763CA3
:207C2000809307010E94F33C55CF0E94763C803309F41DC183E00E94BD3C80E00E94C73C4F
:207C400049CF0E94763C809309020E94763C8093080280910C028E7F80930C020E94763C88
:207C6000853409F415C18091080290910902892B89F000E010E00E94763CF801E85FFE4F53
:207C800080830F5F1F4F80910802909109020817190788F30E94763C803209F045CF8091E0
:207CA0000C0280FF01C16091060170910701660F771F7093070160930601A0910802B091E8
:207CC00009021097C9F0E8E0F1E09B01AD014E0F5F1FF999FECF32BD21BD819180BDFA9A6C
:207CE000F99A2F5F3F4FE417F50799F76A0F7B1F70930701609306018091C00085FFFCCF16
:207D0000F092C6008091C00085FFFCCFB092C600E1CE83E00E94C73CDDCE82E00E94C73C8A
:207D2000D9CE0E94763C809309020E94763C809308028091060190910701880F991F909306
:207D40000701809306010E94763C853409F4A6C080910C028E7F80930C020E94763C80323E
:207D600009F0B8CE8091C00085FFFCCFF092C600609108027091090261157105B9F140E05F
:207D800050E080910C02A82FA170B82FB27011C0BB2309F45CC0E0910601F0910701319613
:207DA000F0930701E09306014F5F5F4F46175707E8F4AA2369F3F999FECF209106013091CA
:207DC000070132BD21BDF89A90B58091C00085FFFCCF9093C6002F5F3F4F30930701209354
:207DE00006014F5F5F4F4617570718F38091C00085FDE5CE8091C00085FFF8CFE0CE81E029
:207E00000E94C73C67CE0E94763C803209F08CCE8091C00085FFFCCFF092C6008091C000F6
:207E200085FFFCCFE092C6008091C00085FFFCCFD092C6008091C00085FFFCCFC092C6003B
:207E40008091C00085FFFCCFB092C60043CEE0910601F091070194918091C00085FFFCCFA3
:207E60009093C6009CCF80E10E94C73C33CE0E94763C0E94763C182F0E94763C112309F433
:207E800083C0113009F484C08FE00E94C73C22CE80910C02816080930C02E5CE80910C0226
:207EA000816080930C0259CF809107018823880F880B8A2180930B0280910601909107019E
:207EC000880F991F90930701809306018091080280FF09C0809108029091090201969093AA
:207EE000090280930802F894F999FECF1127E0910601F0910701C8E0D1E0809108029091A1
:207F00000902103091F40091570001700130D9F303E000935700E895009157000170013067
:207F2000D9F301E100935700E895099019900091570001700130D9F301E000935700E8954C
:207F40001395103498F011270091570001700130D9F305E000935700E8950091570001707A
:207F60000130D9F301E100935700E8953296029709F0C7CF103011F00296E5CF11248091F8
:1E7F8000C00085FFB9CEBCCE8EE10E94C73CA2CD85E90E94C73C9ECDF894FFCF8000B3
:00000001FF
